{
  "contractName": "MilkShake",
  "abi": [
    {
      "inputs": [
        {
          "internalType": "contract CreamToken",
          "name": "_cream",
          "type": "address"
        },
        {
          "internalType": "address",
          "name": "_taxTo",
          "type": "address"
        }
      ],
      "stateMutability": "nonpayable",
      "type": "constructor"
    },
    {
      "anonymous": false,
      "inputs": [
        {
          "indexed": true,
          "internalType": "address",
          "name": "owner",
          "type": "address"
        },
        {
          "indexed": true,
          "internalType": "address",
          "name": "spender",
          "type": "address"
        },
        {
          "indexed": false,
          "internalType": "uint256",
          "name": "value",
          "type": "uint256"
        }
      ],
      "name": "Approval",
      "type": "event"
    },
    {
      "anonymous": false,
      "inputs": [
        {
          "indexed": true,
          "internalType": "address",
          "name": "delegator",
          "type": "address"
        },
        {
          "indexed": true,
          "internalType": "address",
          "name": "fromDelegate",
          "type": "address"
        },
        {
          "indexed": true,
          "internalType": "address",
          "name": "toDelegate",
          "type": "address"
        }
      ],
      "name": "DelegateChanged",
      "type": "event"
    },
    {
      "anonymous": false,
      "inputs": [
        {
          "indexed": true,
          "internalType": "address",
          "name": "delegate",
          "type": "address"
        },
        {
          "indexed": false,
          "internalType": "uint256",
          "name": "previousBalance",
          "type": "uint256"
        },
        {
          "indexed": false,
          "internalType": "uint256",
          "name": "newBalance",
          "type": "uint256"
        }
      ],
      "name": "DelegateVotesChanged",
      "type": "event"
    },
    {
      "anonymous": false,
      "inputs": [
        {
          "indexed": true,
          "internalType": "address",
          "name": "user",
          "type": "address"
        },
        {
          "indexed": false,
          "internalType": "uint256",
          "name": "amount",
          "type": "uint256"
        },
        {
          "indexed": false,
          "internalType": "uint256",
          "name": "tax",
          "type": "uint256"
        }
      ],
      "name": "MilkShakeTransfer",
      "type": "event"
    },
    {
      "anonymous": false,
      "inputs": [
        {
          "indexed": false,
          "internalType": "address",
          "name": "_to",
          "type": "address"
        },
        {
          "indexed": false,
          "internalType": "uint256",
          "name": "_total",
          "type": "uint256"
        },
        {
          "indexed": false,
          "internalType": "uint256",
          "name": "_amount",
          "type": "uint256"
        },
        {
          "indexed": false,
          "internalType": "uint256",
          "name": "_tax",
          "type": "uint256"
        },
        {
          "indexed": false,
          "internalType": "uint256",
          "name": "creamBal",
          "type": "uint256"
        }
      ],
      "name": "MilkShakeTransfer",
      "type": "event"
    },
    {
      "anonymous": false,
      "inputs": [
        {
          "indexed": true,
          "internalType": "address",
          "name": "previousOwner",
          "type": "address"
        },
        {
          "indexed": true,
          "internalType": "address",
          "name": "newOwner",
          "type": "address"
        }
      ],
      "name": "OwnershipTransferred",
      "type": "event"
    },
    {
      "anonymous": false,
      "inputs": [
        {
          "indexed": true,
          "internalType": "address",
          "name": "from",
          "type": "address"
        },
        {
          "indexed": true,
          "internalType": "address",
          "name": "to",
          "type": "address"
        },
        {
          "indexed": false,
          "internalType": "uint256",
          "name": "value",
          "type": "uint256"
        }
      ],
      "name": "Transfer",
      "type": "event"
    },
    {
      "inputs": [],
      "name": "DELEGATION_TYPEHASH",
      "outputs": [
        {
          "internalType": "bytes32",
          "name": "",
          "type": "bytes32"
        }
      ],
      "stateMutability": "view",
      "type": "function",
      "constant": true
    },
    {
      "inputs": [],
      "name": "DOMAIN_TYPEHASH",
      "outputs": [
        {
          "internalType": "bytes32",
          "name": "",
          "type": "bytes32"
        }
      ],
      "stateMutability": "view",
      "type": "function",
      "constant": true
    },
    {
      "inputs": [
        {
          "internalType": "address",
          "name": "owner",
          "type": "address"
        },
        {
          "internalType": "address",
          "name": "spender",
          "type": "address"
        }
      ],
      "name": "allowance",
      "outputs": [
        {
          "internalType": "uint256",
          "name": "",
          "type": "uint256"
        }
      ],
      "stateMutability": "view",
      "type": "function",
      "constant": true
    },
    {
      "inputs": [
        {
          "internalType": "address",
          "name": "spender",
          "type": "address"
        },
        {
          "internalType": "uint256",
          "name": "amount",
          "type": "uint256"
        }
      ],
      "name": "approve",
      "outputs": [
        {
          "internalType": "bool",
          "name": "",
          "type": "bool"
        }
      ],
      "stateMutability": "nonpayable",
      "type": "function"
    },
    {
      "inputs": [
        {
          "internalType": "address",
          "name": "account",
          "type": "address"
        }
      ],
      "name": "balanceOf",
      "outputs": [
        {
          "internalType": "uint256",
          "name": "",
          "type": "uint256"
        }
      ],
      "stateMutability": "view",
      "type": "function",
      "constant": true
    },
    {
      "inputs": [
        {
          "internalType": "address",
          "name": "",
          "type": "address"
        },
        {
          "internalType": "uint32",
          "name": "",
          "type": "uint32"
        }
      ],
      "name": "checkpoints",
      "outputs": [
        {
          "internalType": "uint32",
          "name": "fromBlock",
          "type": "uint32"
        },
        {
          "internalType": "uint256",
          "name": "votes",
          "type": "uint256"
        }
      ],
      "stateMutability": "view",
      "type": "function",
      "constant": true
    },
    {
      "inputs": [],
      "name": "cream",
      "outputs": [
        {
          "internalType": "contract CreamToken",
          "name": "",
          "type": "address"
        }
      ],
      "stateMutability": "view",
      "type": "function",
      "constant": true
    },
    {
      "inputs": [],
      "name": "decimals",
      "outputs": [
        {
          "internalType": "uint8",
          "name": "",
          "type": "uint8"
        }
      ],
      "stateMutability": "view",
      "type": "function",
      "constant": true
    },
    {
      "inputs": [
        {
          "internalType": "address",
          "name": "spender",
          "type": "address"
        },
        {
          "internalType": "uint256",
          "name": "subtractedValue",
          "type": "uint256"
        }
      ],
      "name": "decreaseAllowance",
      "outputs": [
        {
          "internalType": "bool",
          "name": "",
          "type": "bool"
        }
      ],
      "stateMutability": "nonpayable",
      "type": "function"
    },
    {
      "inputs": [],
      "name": "getOwner",
      "outputs": [
        {
          "internalType": "address",
          "name": "",
          "type": "address"
        }
      ],
      "stateMutability": "view",
      "type": "function",
      "constant": true
    },
    {
      "inputs": [
        {
          "internalType": "address",
          "name": "spender",
          "type": "address"
        },
        {
          "internalType": "uint256",
          "name": "addedValue",
          "type": "uint256"
        }
      ],
      "name": "increaseAllowance",
      "outputs": [
        {
          "internalType": "bool",
          "name": "",
          "type": "bool"
        }
      ],
      "stateMutability": "nonpayable",
      "type": "function"
    },
    {
      "inputs": [],
      "name": "name",
      "outputs": [
        {
          "internalType": "string",
          "name": "",
          "type": "string"
        }
      ],
      "stateMutability": "view",
      "type": "function",
      "constant": true
    },
    {
      "inputs": [
        {
          "internalType": "address",
          "name": "",
          "type": "address"
        }
      ],
      "name": "nonces",
      "outputs": [
        {
          "internalType": "uint256",
          "name": "",
          "type": "uint256"
        }
      ],
      "stateMutability": "view",
      "type": "function",
      "constant": true
    },
    {
      "inputs": [
        {
          "internalType": "address",
          "name": "",
          "type": "address"
        }
      ],
      "name": "numCheckpoints",
      "outputs": [
        {
          "internalType": "uint32",
          "name": "",
          "type": "uint32"
        }
      ],
      "stateMutability": "view",
      "type": "function",
      "constant": true
    },
    {
      "inputs": [],
      "name": "owner",
      "outputs": [
        {
          "internalType": "address",
          "name": "",
          "type": "address"
        }
      ],
      "stateMutability": "view",
      "type": "function",
      "constant": true
    },
    {
      "inputs": [],
      "name": "renounceOwnership",
      "outputs": [],
      "stateMutability": "nonpayable",
      "type": "function"
    },
    {
      "inputs": [],
      "name": "symbol",
      "outputs": [
        {
          "internalType": "string",
          "name": "",
          "type": "string"
        }
      ],
      "stateMutability": "view",
      "type": "function",
      "constant": true
    },
    {
      "inputs": [],
      "name": "tax",
      "outputs": [
        {
          "internalType": "uint256",
          "name": "",
          "type": "uint256"
        }
      ],
      "stateMutability": "view",
      "type": "function",
      "constant": true
    },
    {
      "inputs": [],
      "name": "taxTo",
      "outputs": [
        {
          "internalType": "address",
          "name": "",
          "type": "address"
        }
      ],
      "stateMutability": "view",
      "type": "function",
      "constant": true
    },
    {
      "inputs": [],
      "name": "totalSupply",
      "outputs": [
        {
          "internalType": "uint256",
          "name": "",
          "type": "uint256"
        }
      ],
      "stateMutability": "view",
      "type": "function",
      "constant": true
    },
    {
      "inputs": [
        {
          "internalType": "address",
          "name": "recipient",
          "type": "address"
        },
        {
          "internalType": "uint256",
          "name": "amount",
          "type": "uint256"
        }
      ],
      "name": "transfer",
      "outputs": [
        {
          "internalType": "bool",
          "name": "",
          "type": "bool"
        }
      ],
      "stateMutability": "nonpayable",
      "type": "function"
    },
    {
      "inputs": [
        {
          "internalType": "address",
          "name": "sender",
          "type": "address"
        },
        {
          "internalType": "address",
          "name": "recipient",
          "type": "address"
        },
        {
          "internalType": "uint256",
          "name": "amount",
          "type": "uint256"
        }
      ],
      "name": "transferFrom",
      "outputs": [
        {
          "internalType": "bool",
          "name": "",
          "type": "bool"
        }
      ],
      "stateMutability": "nonpayable",
      "type": "function"
    },
    {
      "inputs": [
        {
          "internalType": "address",
          "name": "newOwner",
          "type": "address"
        }
      ],
      "name": "transferOwnership",
      "outputs": [],
      "stateMutability": "nonpayable",
      "type": "function"
    },
    {
      "inputs": [
        {
          "internalType": "address",
          "name": "_to",
          "type": "address"
        },
        {
          "internalType": "uint256",
          "name": "_amount",
          "type": "uint256"
        }
      ],
      "name": "mint",
      "outputs": [],
      "stateMutability": "nonpayable",
      "type": "function"
    },
    {
      "inputs": [
        {
          "internalType": "uint256",
          "name": "amount",
          "type": "uint256"
        }
      ],
      "name": "mint",
      "outputs": [
        {
          "internalType": "bool",
          "name": "",
          "type": "bool"
        }
      ],
      "stateMutability": "nonpayable",
      "type": "function"
    },
    {
      "inputs": [
        {
          "internalType": "address",
          "name": "_from",
          "type": "address"
        },
        {
          "internalType": "uint256",
          "name": "_amount",
          "type": "uint256"
        }
      ],
      "name": "burn",
      "outputs": [],
      "stateMutability": "nonpayable",
      "type": "function"
    },
    {
      "inputs": [
        {
          "internalType": "address",
          "name": "_taxTo",
          "type": "address"
        }
      ],
      "name": "setTaxAddr",
      "outputs": [],
      "stateMutability": "nonpayable",
      "type": "function"
    },
    {
      "inputs": [
        {
          "internalType": "uint256",
          "name": "_tax",
          "type": "uint256"
        }
      ],
      "name": "setTax",
      "outputs": [],
      "stateMutability": "nonpayable",
      "type": "function"
    },
    {
      "inputs": [
        {
          "internalType": "address",
          "name": "_to",
          "type": "address"
        },
        {
          "internalType": "uint256",
          "name": "_total",
          "type": "uint256"
        }
      ],
      "name": "safeCreamTransfer",
      "outputs": [],
      "stateMutability": "nonpayable",
      "type": "function"
    },
    {
      "inputs": [
        {
          "internalType": "address",
          "name": "delegator",
          "type": "address"
        }
      ],
      "name": "delegates",
      "outputs": [
        {
          "internalType": "address",
          "name": "",
          "type": "address"
        }
      ],
      "stateMutability": "view",
      "type": "function",
      "constant": true
    },
    {
      "inputs": [
        {
          "internalType": "address",
          "name": "delegatee",
          "type": "address"
        }
      ],
      "name": "delegate",
      "outputs": [],
      "stateMutability": "nonpayable",
      "type": "function"
    },
    {
      "inputs": [
        {
          "internalType": "address",
          "name": "delegatee",
          "type": "address"
        },
        {
          "internalType": "uint256",
          "name": "nonce",
          "type": "uint256"
        },
        {
          "internalType": "uint256",
          "name": "expiry",
          "type": "uint256"
        },
        {
          "internalType": "uint8",
          "name": "v",
          "type": "uint8"
        },
        {
          "internalType": "bytes32",
          "name": "r",
          "type": "bytes32"
        },
        {
          "internalType": "bytes32",
          "name": "s",
          "type": "bytes32"
        }
      ],
      "name": "delegateBySig",
      "outputs": [],
      "stateMutability": "nonpayable",
      "type": "function"
    },
    {
      "inputs": [
        {
          "internalType": "address",
          "name": "account",
          "type": "address"
        }
      ],
      "name": "getCurrentVotes",
      "outputs": [
        {
          "internalType": "uint256",
          "name": "",
          "type": "uint256"
        }
      ],
      "stateMutability": "view",
      "type": "function",
      "constant": true
    },
    {
      "inputs": [
        {
          "internalType": "address",
          "name": "account",
          "type": "address"
        },
        {
          "internalType": "uint256",
          "name": "blockNumber",
          "type": "uint256"
        }
      ],
      "name": "getPriorVotes",
      "outputs": [
        {
          "internalType": "uint256",
          "name": "",
          "type": "uint256"
        }
      ],
      "stateMutability": "view",
      "type": "function",
      "constant": true
    }
  ],
  "bytecode": "0x60806040523480156200001157600080fd5b50604051620025c5380380620025c5833981810160405260408110156200003757600080fd5b50805160209182015160408051808201825260098152684d696c6b5368616b6560b81b81860152815180830190925260058252645368616b6560d81b948201949094529192909160006200008a6200014f565b600080546001600160a01b0319166001600160a01b0383169081178255604051929350917f8be0079c531659141344cd1fd0a4f28419497f9722a3daafe3b4186f6b6457e0908290a3508151620000e990600490602085019062000153565b508051620000ff90600590602084019062000153565b505060068054601260ff1990911617610100600160a81b0319166101006001600160a01b039485160217905550600880546001600160a01b031916929091169190911790556032600755620001ef565b3390565b828054600181600116156101000203166002900490600052602060002090601f016020900481019282601f106200019657805160ff1916838001178555620001c6565b82800160010185558215620001c6579182015b82811115620001c6578251825591602001919060010190620001a9565b50620001d4929150620001d8565b5090565b5b80821115620001d45760008155600101620001d9565b6123c680620001ff6000396000f3fe608060405234801561001057600080fd5b50600436106102065760003560e01c80637ecebe001161011a578063a642872e116100ad578063d85b97561161007c578063d85b975614610664578063dd62ed3e1461066c578063e7a324dc1461069a578063f1127ed8146106a2578063f2fde38b146106f457610206565b8063a642872e146105c3578063a9059cbb146105cb578063b4b5ea57146105f7578063c3cda5201461061d57610206565b806399c8d556116100e957806399c8d556146105465780639dc29fac1461054e578063a0712d681461057a578063a457c2d71461059757610206565b80637ecebe0014610508578063893d20e81461052e5780638da5cb5b1461053657806395d89b411461053e57610206565b8063395093511161019d5780636b27dcbd1161016c5780636b27dcbd146104495780636fcfff451461046f57806370a08231146104ae578063715018a6146104d4578063782d6fe1146104dc57610206565b8063395093511461038957806340c10f19146103b5578063587cde1e146103e15780635c19a95c1461042357610206565b806320606b70116101d957806320606b701461031057806323b872dd146103185780632e5bb6ff1461034e578063313ce5671461036b57610206565b806306fdde031461020b578063095ea7b314610288578063121a9602146102c857806318160ddd146102f6575b600080fd5b61021361071a565b6040805160208082528351818301528351919283929083019185019080838360005b8381101561024d578181015183820152602001610235565b50505050905090810190601f16801561027a5780820380516001836020036101000a031916815260200191505b509250505060405180910390f35b6102b46004803603604081101561029e57600080fd5b506001600160a01b0381351690602001356107b0565b604080519115158252519081900360200190f35b6102f4600480360360408110156102de57600080fd5b506001600160a01b0381351690602001356107ce565b005b6102fe610ab2565b60408051918252519081900360200190f35b6102fe610ab8565b6102b46004803603606081101561032e57600080fd5b506001600160a01b03813581169160208101359091169060400135610adc565b6102f46004803603602081101561036457600080fd5b5035610b63565b610373610c0f565b6040805160ff9092168252519081900360200190f35b6102b46004803603604081101561039f57600080fd5b506001600160a01b038135169060200135610c18565b6102f4600480360360408110156103cb57600080fd5b506001600160a01b038135169060200135610c66565b610407600480360360208110156103f757600080fd5b50356001600160a01b0316610cf1565b604080516001600160a01b039092168252519081900360200190f35b6102f46004803603602081101561043957600080fd5b50356001600160a01b0316610d0f565b6102f46004803603602081101561045f57600080fd5b50356001600160a01b0316610d1c565b6104956004803603602081101561048557600080fd5b50356001600160a01b0316610d9c565b6040805163ffffffff9092168252519081900360200190f35b6102fe600480360360208110156104c457600080fd5b50356001600160a01b0316610db4565b6102f4610dcf565b6102fe600480360360408110156104f257600080fd5b506001600160a01b038135169060200135610e71565b6102fe6004803603602081101561051e57600080fd5b50356001600160a01b0316611079565b61040761108b565b61040761109a565b6102136110a9565b6102fe61110a565b6102f46004803603604081101561056457600080fd5b506001600160a01b038135169060200135611110565b6102b46004803603602081101561059057600080fd5b5035611198565b6102b4600480360360408110156105ad57600080fd5b506001600160a01b03813516906020013561120b565b610407611273565b6102b4600480360360408110156105e157600080fd5b506001600160a01b038135169060200135611282565b6102fe6004803603602081101561060d57600080fd5b50356001600160a01b0316611296565b6102f4600480360360c081101561063357600080fd5b506001600160a01b038135169060208101359060408101359060ff6060820135169060808101359060a001356112fa565b6104076115af565b6102fe6004803603604081101561068257600080fd5b506001600160a01b03813581169160200135166115c3565b6102fe6115ee565b6106d4600480360360408110156106b857600080fd5b5080356001600160a01b0316906020013563ffffffff16611612565b6040805163ffffffff909316835260208301919091528051918290030190f35b6102f46004803603602081101561070a57600080fd5b50356001600160a01b031661163f565b60048054604080516020601f60026000196101006001881615020190951694909404938401819004810282018101909252828152606093909290918301828280156107a65780601f1061077b576101008083540402835291602001916107a6565b820191906000526020600020905b81548152906001019060200180831161078957829003601f168201915b5050505050905090565b60006107c46107bd6116a0565b84846116a4565b5060015b92915050565b6107d66116a0565b6000546001600160a01b03908116911614610826576040805162461bcd60e51b81526020600482018190526024820152600080516020612270833981519152604482015290519081900360640190fd5b60008061083283611790565b909250905080156108c8576008546006546040805163a9059cbb60e01b81526101009092046001600160a01b03908116600484015260248301859052905192169163a9059cbb916044808201926020929091908290030181600087803b15801561089b57600080fd5b505af11580156108af573d6000803e3d6000fd5b505050506040513d60208110156108c557600080fd5b50505b600854604080516370a0823160e01b815230600482015290516000926001600160a01b0316916370a08231916024808301926020929190829003018186803b15801561091357600080fd5b505afa158015610927573d6000803e3d6000fd5b505050506040513d602081101561093d57600080fd5b50519050808311156109d1576008546040805163a9059cbb60e01b81526001600160a01b038881166004830152602482018590529151919092169163a9059cbb9160448083019260209291908290030181600087803b15801561099f57600080fd5b505af11580156109b3573d6000803e3d6000fd5b505050506040513d60208110156109c957600080fd5b50610a549050565b6008546040805163a9059cbb60e01b81526001600160a01b038881166004830152602482018790529151919092169163a9059cbb9160448083019260209291908290030181600087803b158015610a2757600080fd5b505af1158015610a3b573d6000803e3d6000fd5b505050506040513d6020811015610a5157600080fd5b50505b604080516001600160a01b038716815260208101869052808201859052606081018490526080810183905290517f62fc920f04ac770cffc9c99975bfe7018bec1cf3368ae0a2309d318e772ca7c59181900360a00190a15050505050565b60035490565b7f8cad95687ba82c2ce50e74f7b754645e5117c3a5bec8151c0726d5857980a86681565b6000610ae98484846117e6565b610b5984610af56116a0565b610b5485604051806060016040528060288152602001612227602891396001600160a01b038a16600090815260026020526040812090610b336116a0565b6001600160a01b031681526020810191909152604001600020549190611938565b6116a4565b5060019392505050565b610b6b6116a0565b6000546001600160a01b03908116911614610bbb576040805162461bcd60e51b81526020600482018190526024820152600080516020612270833981519152604482015290519081900360640190fd5b6064811115610c0a576040805162461bcd60e51b815260206004820152601660248201527563616e2774206265206d6f7265207468616e2031302560501b604482015290519081900360640190fd5b600755565b60065460ff1690565b60006107c4610c256116a0565b84610b548560026000610c366116a0565b6001600160a01b03908116825260208083019390935260409182016000908120918c1681529252902054906119cf565b610c6e6116a0565b6000546001600160a01b03908116911614610cbe576040805162461bcd60e51b81526020600482018190526024820152600080516020612270833981519152604482015290519081900360640190fd5b610cc88282611a29565b6001600160a01b03808316600090815260096020526040812054610ced921683611b0f565b5050565b6001600160a01b039081166000908152600960205260409020541690565b610d193382611c51565b50565b610d246116a0565b6000546001600160a01b03908116911614610d74576040805162461bcd60e51b81526020600482018190526024820152600080516020612270833981519152604482015290519081900360640190fd5b600680546001600160a01b0390921661010002610100600160a81b0319909216919091179055565b600b6020526000908152604090205463ffffffff1681565b6001600160a01b031660009081526001602052604090205490565b610dd76116a0565b6000546001600160a01b03908116911614610e27576040805162461bcd60e51b81526020600482018190526024820152600080516020612270833981519152604482015290519081900360640190fd5b600080546040516001600160a01b03909116907f8be0079c531659141344cd1fd0a4f28419497f9722a3daafe3b4186f6b6457e0908390a3600080546001600160a01b0319169055565b6000438210610eb15760405162461bcd60e51b81526004018080602001828103825260218152602001806121976021913960400191505060405180910390fd5b6001600160a01b0383166000908152600b602052604090205463ffffffff1680610edf5760009150506107c8565b6001600160a01b0384166000908152600a6020908152604080832063ffffffff600019860181168552925290912054168310610f4e576001600160a01b0384166000908152600a602090815260408083206000199490940163ffffffff168352929052206001015490506107c8565b6001600160a01b0384166000908152600a6020908152604080832083805290915290205463ffffffff16831015610f895760009150506107c8565b600060001982015b8163ffffffff168163ffffffff16111561104257600282820363ffffffff16048103610fbb61217f565b506001600160a01b0387166000908152600a6020908152604080832063ffffffff80861685529083529281902081518083019092528054909316808252600190930154918101919091529087141561101d576020015194506107c89350505050565b805163ffffffff168711156110345781935061103b565b6001820392505b5050610f91565b506001600160a01b0385166000908152600a6020908152604080832063ffffffff9094168352929052206001015491505092915050565b600c6020526000908152604090205481565b600061109561109a565b905090565b6000546001600160a01b031690565b60058054604080516020601f60026000196101006001881615020190951694909404938401819004810282018101909252828152606093909290918301828280156107a65780601f1061077b576101008083540402835291602001916107a6565b60075481565b6111186116a0565b6000546001600160a01b03908116911614611168576040805162461bcd60e51b81526020600482018190526024820152600080516020612270833981519152604482015290519081900360640190fd5b6111728282611ce6565b6001600160a01b03808316600090815260096020526040812054610ced92169083611b0f565b60006111a26116a0565b6000546001600160a01b039081169116146111f2576040805162461bcd60e51b81526020600482018190526024820152600080516020612270833981519152604482015290519081900360640190fd5b6112036111fd6116a0565b83611a29565b506001919050565b60006107c46112186116a0565b84610b548560405180606001604052806025815260200161230760259139600260006112426116a0565b6001600160a01b03908116825260208083019390935260409182016000908120918d16815292529020549190611938565b6008546001600160a01b031681565b60006107c461128f6116a0565b84846117e6565b6001600160a01b0381166000908152600b602052604081205463ffffffff16806112c15760006112f3565b6001600160a01b0383166000908152600a6020908152604080832063ffffffff60001986011684529091529020600101545b9392505050565b60007f8cad95687ba82c2ce50e74f7b754645e5117c3a5bec8151c0726d5857980a86661132561071a565b80519060200120611334611dd6565b60408051602080820195909552808201939093526060830191909152306080808401919091528151808403909101815260a0830182528051908401207fe48329057bfd03d55e49b547132e39cffd9c1820ad7b9d4c5307691425d15adf60c08401526001600160a01b038b1660e084015261010083018a90526101208084018a9052825180850390910181526101408401835280519085012061190160f01b6101608501526101628401829052610182808501829052835180860390910181526101a285018085528151918701919091206000918290526101c2860180865281905260ff8b166101e287015261020286018a90526102228601899052935192965090949293909260019261024280840193601f198301929081900390910190855afa158015611467573d6000803e3d6000fd5b5050604051601f1901519150506001600160a01b0381166114cf576040805162461bcd60e51b815260206004820181905260248201527f64656c656761746542795369673a20696e76616c6964207369676e6174757265604482015290519081900360640190fd5b6001600160a01b0381166000908152600c602052604090208054600181019091558914611543576040805162461bcd60e51b815260206004820152601c60248201527f64656c656761746542795369673a20696e76616c6964206e6f6e636500000000604482015290519081900360640190fd5b87421115611598576040805162461bcd60e51b815260206004820181905260248201527f64656c656761746542795369673a207369676e61747572652065787069726564604482015290519081900360640190fd5b6115a2818b611c51565b505050505b505050505050565b60065461010090046001600160a01b031681565b6001600160a01b03918216600090815260026020908152604080832093909416825291909152205490565b7fe48329057bfd03d55e49b547132e39cffd9c1820ad7b9d4c5307691425d15adf81565b600a6020908152600092835260408084209091529082529020805460019091015463ffffffff9091169082565b6116476116a0565b6000546001600160a01b03908116911614611697576040805162461bcd60e51b81526020600482018190526024820152600080516020612270833981519152604482015290519081900360640190fd5b610d1981611dda565b3390565b6001600160a01b0383166116e95760405162461bcd60e51b81526004018080602001828103825260248152602001806121dd6024913960400191505060405180910390fd5b6001600160a01b03821661172e5760405162461bcd60e51b815260040180806020018281038252602281526020018061236f6022913960400191505060405180910390fd5b6001600160a01b03808416600081815260026020908152604080832094871680845294825291829020859055815185815291517f8c5be1e5ebec7d5bd14f71427d1e84f3dd0314c0f7b2291e5b200ac8c7c3b9259281900390910190a3505050565b600080600754600014156117a9575081905060006117e1565b600754156117e1576117d26103e86117cc60075486611e7a90919063ffffffff16565b90611ed3565b90506117de8382611f15565b91505b915091565b6001600160a01b03831661182b5760405162461bcd60e51b81526004018080602001828103825260258152602001806121b86025913960400191505060405180910390fd5b6001600160a01b0382166118705760405162461bcd60e51b81526004018080602001828103825260238152602001806122e46023913960400191505060405180910390fd5b6118ad816040518060600160405280602681526020016122be602691396001600160a01b0386166000908152600160205260409020549190611938565b6001600160a01b0380851660009081526001602052604080822093909355908416815220546118dc90826119cf565b6001600160a01b0380841660008181526001602090815260409182902094909455805185815290519193928716927fddf252ad1be2c89b69c2b068fc378daa952ba7f163c4a11628f55a4df523b3ef92918290030190a3505050565b600081848411156119c75760405162461bcd60e51b81526004018080602001828103825283818151815260200191508051906020019080838360005b8381101561198c578181015183820152602001611974565b50505050905090810190601f1680156119b95780820380516001836020036101000a031916815260200191505b509250505060405180910390fd5b505050900390565b6000828201838110156112f3576040805162461bcd60e51b815260206004820152601b60248201527f536166654d6174683a206164646974696f6e206f766572666c6f770000000000604482015290519081900360640190fd5b6001600160a01b038216611a84576040805162461bcd60e51b815260206004820152601f60248201527f42455032303a206d696e7420746f20746865207a65726f206164647265737300604482015290519081900360640190fd5b600354611a9190826119cf565b6003556001600160a01b038216600090815260016020526040902054611ab790826119cf565b6001600160a01b03831660008181526001602090815260408083209490945583518581529351929391927fddf252ad1be2c89b69c2b068fc378daa952ba7f163c4a11628f55a4df523b3ef9281900390910190a35050565b816001600160a01b0316836001600160a01b031614158015611b315750600081115b15611c4c576001600160a01b03831615611bc3576001600160a01b0383166000908152600b602052604081205463ffffffff169081611b71576000611ba3565b6001600160a01b0385166000908152600a6020908152604080832063ffffffff60001987011684529091529020600101545b90506000611bb18285611f15565b9050611bbf86848484611f57565b5050505b6001600160a01b03821615611c4c576001600160a01b0382166000908152600b602052604081205463ffffffff169081611bfe576000611c30565b6001600160a01b0384166000908152600a6020908152604080832063ffffffff60001987011684529091529020600101545b90506000611c3e82856119cf565b90506115a785848484611f57565b505050565b6001600160a01b0380831660009081526009602052604081205490911690611c7884610db4565b6001600160a01b0385811660008181526009602052604080822080546001600160a01b031916898616908117909155905194955093928616927f3134e8a2e6d97e929a7e54011ea5485d7d196dd5f0ba4d4ef95803e8e3fc257f9190a4611ce0828483611b0f565b50505050565b6001600160a01b038216611d2b5760405162461bcd60e51b815260040180806020018281038252602181526020018061232c6021913960400191505060405180910390fd5b611d688160405180606001604052806022815260200161234d602291396001600160a01b0385166000908152600160205260409020549190611938565b6001600160a01b038316600090815260016020526040902055600354611d8e9082611f15565b6003556040805182815290516000916001600160a01b038516917fddf252ad1be2c89b69c2b068fc378daa952ba7f163c4a11628f55a4df523b3ef9181900360200190a35050565b4690565b6001600160a01b038116611e1f5760405162461bcd60e51b81526004018080602001828103825260268152602001806122016026913960400191505060405180910390fd5b600080546040516001600160a01b03808516939216917f8be0079c531659141344cd1fd0a4f28419497f9722a3daafe3b4186f6b6457e091a3600080546001600160a01b0319166001600160a01b0392909216919091179055565b600082611e89575060006107c8565b82820282848281611e9657fe5b04146112f35760405162461bcd60e51b815260040180806020018281038252602181526020018061224f6021913960400191505060405180910390fd5b60006112f383836040518060400160405280601a81526020017f536166654d6174683a206469766973696f6e206279207a65726f0000000000008152506120bc565b60006112f383836040518060400160405280601e81526020017f536166654d6174683a207375627472616374696f6e206f766572666c6f770000815250611938565b6000611f7b436040518060600160405280602e8152602001612290602e9139612121565b905060008463ffffffff16118015611fc457506001600160a01b0385166000908152600a6020908152604080832063ffffffff6000198901811685529252909120548282169116145b15612001576001600160a01b0385166000908152600a6020908152604080832063ffffffff60001989011684529091529020600101829055612072565b60408051808201825263ffffffff808416825260208083018681526001600160a01b038a166000818152600a84528681208b8616825284528681209551865490861663ffffffff199182161787559251600196870155908152600b9092529390208054928801909116919092161790555b604080518481526020810184905281516001600160a01b038816927fdec2bacdd2f05b59de34da9b523dff8be42e5e38e818c82fdb0bae774387a724928290030190a25050505050565b6000818361210b5760405162461bcd60e51b815260206004820181815283516024840152835190928392604490910191908501908083836000831561198c578181015183820152602001611974565b50600083858161211757fe5b0495945050505050565b60008164010000000084106121775760405162461bcd60e51b815260206004820181815283516024840152835190928392604490910191908501908083836000831561198c578181015183820152602001611974565b509192915050565b60408051808201909152600080825260208201529056fe6765745072696f72566f7465733a206e6f74207965742064657465726d696e656442455032303a207472616e736665722066726f6d20746865207a65726f206164647265737342455032303a20617070726f76652066726f6d20746865207a65726f20616464726573734f776e61626c653a206e6577206f776e657220697320746865207a65726f206164647265737342455032303a207472616e7366657220616d6f756e74206578636565647320616c6c6f77616e6365536166654d6174683a206d756c7469706c69636174696f6e206f766572666c6f774f776e61626c653a2063616c6c6572206973206e6f7420746865206f776e65725f7772697465436865636b706f696e743a20626c6f636b206e756d6265722065786365656473203332206269747342455032303a207472616e7366657220616d6f756e7420657863656564732062616c616e636542455032303a207472616e7366657220746f20746865207a65726f206164647265737342455032303a2064656372656173656420616c6c6f77616e63652062656c6f77207a65726f42455032303a206275726e2066726f6d20746865207a65726f206164647265737342455032303a206275726e20616d6f756e7420657863656564732062616c616e636542455032303a20617070726f766520746f20746865207a65726f2061646472657373a2646970667358221220b3a89599bc3d99892f06e4803915a90f32dbe61b3899c5ec9b4a42b06046987b64736f6c634300060c0033",
  "immutableReferences": {},
  "source": "/*\n\nhttps://icecreamswap.finance/\n\nTelegram: https://t.me/IceCreamSwap\n\nTwitter: https://twitter.com/SwapIceCream\n\n*/\n\npragma solidity 0.6.12;\n\nimport \"./libs/token/BEP20/BEP20.sol\";\n\nimport \"./CreamToken.sol\";\n\n// MilkShake with Governance.\ncontract MilkShake is BEP20('MilkShake', 'Shake') {\n\n    address public taxTo;\n    uint256 public tax;\n\n    event MilkShakeTransfer(address indexed user, uint256 amount, uint256 tax);\n\n    /// @notice Creates `_amount` token to `_to`. Must only be called by the owner (MasterChef).\n    function mint(address _to, uint256 _amount) public onlyOwner {\n        _mint(_to, _amount);\n        _moveDelegates(address(0), _delegates[_to], _amount);\n    }\n\n    function burn(address _from ,uint256 _amount) public onlyOwner {\n        _burn(_from, _amount);\n        _moveDelegates(_delegates[_from], address(0), _amount);\n    }\n\n    // The CREAM TOKEN!\n    CreamToken public cream;\n\n    constructor(CreamToken _cream, address _taxTo) public {\n        taxTo = _taxTo;\n        cream = _cream;\n        tax = 50; // Defaults to 5%. 1=0.1%\n    }\n\n    // CAN ONLY BE CALLED VIA MASTERCHEF/TIMELOCK:\n    // Update taxTo address by the previous taxTo.\n    function setTaxAddr(address _taxTo) external onlyOwner {\n        taxTo = _taxTo;\n    }\n\n    // CAN ONLY BE CALLED VIA MASTERCHEF/TIMELOCK:\n    // Update taxTo address by the previous taxTo.\n    function setTax(uint256 _tax) external onlyOwner {\n        require( _tax <= 100, \"can't be more than 10%\" );\n        tax = _tax;\n    }\n\n    event MilkShakeTransfer(address _to, uint256 _total, uint256 _amount, uint256 _tax, uint256 creamBal);\n    // Safe cream transfer function, just in case if rounding error causes pool to not have enough CREAMs.\n    function safeCreamTransfer(address _to, uint256 _total) external onlyOwner {\n\n        (uint256 _amount, uint256 _tax) = taxUser(_total);\n        if( _tax > 0 ){ // send the taxed amount to be burned\n            cream.transfer(taxTo, _tax);\n        }\n\n        uint256 creamBal = cream.balanceOf(address(this));\n        if (_amount > creamBal) {\n            cream.transfer(_to, creamBal);\n        } else {\n            cream.transfer(_to, _amount);\n        }\n        emit MilkShakeTransfer(_to, _total, _amount, _tax, creamBal);\n    }\n\n    function taxUser( uint256 _total ) private returns (uint256 _amount, uint256 _amount_tax ){\n        if( tax == 0 ){\n            return( _total, 0 );\n        }\n        if( tax > 0 ){\n            _amount_tax = _total.mul(tax).div(1000);\n            _amount = _total.sub(_amount_tax);\n        }\n        return( _amount, _amount_tax );\n    }\n\n    // Copied and modified from YAM code:\n    // https://github.com/yam-finance/yam-protocol/blob/master/contracts/token/YAMGovernanceStorage.sol\n    // https://github.com/yam-finance/yam-protocol/blob/master/contracts/token/YAMGovernance.sol\n    // Which is copied and modified from COMPOUND:\n    // https://github.com/compound-finance/compound-protocol/blob/master/contracts/Governance/Comp.sol\n\n    /// @notice A record of each accounts delegate\n    mapping (address => address) internal _delegates;\n\n    /// @notice A checkpoint for marking number of votes from a given block\n    struct Checkpoint {\n        uint32 fromBlock;\n        uint256 votes;\n    }\n\n    /// @notice A record of votes checkpoints for each account, by index\n    mapping (address => mapping (uint32 => Checkpoint)) public checkpoints;\n\n    /// @notice The number of checkpoints for each account\n    mapping (address => uint32) public numCheckpoints;\n\n    /// @notice The EIP-712 typehash for the contract's domain\n    bytes32 public constant DOMAIN_TYPEHASH = keccak256(\"EIP712Domain(string name,uint256 chainId,address verifyingContract)\");\n\n    /// @notice The EIP-712 typehash for the delegation struct used by the contract\n    bytes32 public constant DELEGATION_TYPEHASH = keccak256(\"Delegation(address delegatee,uint256 nonce,uint256 expiry)\");\n\n    /// @notice A record of states for signing / validating signatures\n    mapping (address => uint) public nonces;\n\n      /// @notice An event thats emitted when an account changes its delegate\n    event DelegateChanged(address indexed delegator, address indexed fromDelegate, address indexed toDelegate);\n\n    /// @notice An event thats emitted when a delegate account's vote balance changes\n    event DelegateVotesChanged(address indexed delegate, uint previousBalance, uint newBalance);\n\n    /**\n     * @notice Delegate votes from `msg.sender` to `delegatee`\n     * @param delegator The address to get delegatee for\n     */\n    function delegates(address delegator)\n        external\n        view\n        returns (address)\n    {\n        return _delegates[delegator];\n    }\n\n   /**\n    * @notice Delegate votes from `msg.sender` to `delegatee`\n    * @param delegatee The address to delegate votes to\n    */\n    function delegate(address delegatee) external {\n        return _delegate(msg.sender, delegatee);\n    }\n\n    /**\n     * @notice Delegates votes from signatory to `delegatee`\n     * @param delegatee The address to delegate votes to\n     * @param nonce The contract state required to match the signature\n     * @param expiry The time at which to expire the signature\n     * @param v The recovery byte of the signature\n     * @param r Half of the ECDSA signature pair\n     * @param s Half of the ECDSA signature pair\n     */\n    function delegateBySig(\n        address delegatee,\n        uint nonce,\n        uint expiry,\n        uint8 v,\n        bytes32 r,\n        bytes32 s\n    )\n        external\n    {\n        bytes32 domainSeparator = keccak256(\n            abi.encode(\n                DOMAIN_TYPEHASH,\n                keccak256(bytes(name())),\n                getChainId(),\n                address(this)\n            )\n        );\n\n        bytes32 structHash = keccak256(\n            abi.encode(\n                DELEGATION_TYPEHASH,\n                delegatee,\n                nonce,\n                expiry\n            )\n        );\n\n        bytes32 digest = keccak256(\n            abi.encodePacked(\n                \"\\x19\\x01\",\n                domainSeparator,\n                structHash\n            )\n        );\n\n        address signatory = ecrecover(digest, v, r, s);\n        require(signatory != address(0), \"delegateBySig: invalid signature\");\n        require(nonce == nonces[signatory]++, \"delegateBySig: invalid nonce\");\n        require(now <= expiry, \"delegateBySig: signature expired\");\n        return _delegate(signatory, delegatee);\n    }\n\n    /**\n     * @notice Gets the current votes balance for `account`\n     * @param account The address to get votes balance\n     * @return The number of current votes for `account`\n     */\n    function getCurrentVotes(address account)\n        external\n        view\n        returns (uint256)\n    {\n        uint32 nCheckpoints = numCheckpoints[account];\n        return nCheckpoints > 0 ? checkpoints[account][nCheckpoints - 1].votes : 0;\n    }\n\n    /**\n     * @notice Determine the prior number of votes for an account as of a block number\n     * @dev Block number must be a finalized block or else this function will revert to prevent misinformation.\n     * @param account The address of the account to check\n     * @param blockNumber The block number to get the vote balance at\n     * @return The number of votes the account had as of the given block\n     */\n    function getPriorVotes(address account, uint blockNumber)\n        external\n        view\n        returns (uint256)\n    {\n        require(blockNumber < block.number, \"getPriorVotes: not yet determined\");\n\n        uint32 nCheckpoints = numCheckpoints[account];\n        if (nCheckpoints == 0) {\n            return 0;\n        }\n\n        // First check most recent balance\n        if (checkpoints[account][nCheckpoints - 1].fromBlock <= blockNumber) {\n            return checkpoints[account][nCheckpoints - 1].votes;\n        }\n\n        // Next check implicit zero balance\n        if (checkpoints[account][0].fromBlock > blockNumber) {\n            return 0;\n        }\n\n        uint32 lower = 0;\n        uint32 upper = nCheckpoints - 1;\n        while (upper > lower) {\n            uint32 center = upper - (upper - lower) / 2; // ceil, avoiding overflow\n            Checkpoint memory cp = checkpoints[account][center];\n            if (cp.fromBlock == blockNumber) {\n                return cp.votes;\n            } else if (cp.fromBlock < blockNumber) {\n                lower = center;\n            } else {\n                upper = center - 1;\n            }\n        }\n        return checkpoints[account][lower].votes;\n    }\n\n    function _delegate(address delegator, address delegatee)\n        internal\n    {\n        address currentDelegate = _delegates[delegator];\n        uint256 delegatorBalance = balanceOf(delegator); // balance of underlying CREAMs (not scaled);\n        _delegates[delegator] = delegatee;\n\n        emit DelegateChanged(delegator, currentDelegate, delegatee);\n\n        _moveDelegates(currentDelegate, delegatee, delegatorBalance);\n    }\n\n    function _moveDelegates(address srcRep, address dstRep, uint256 amount) internal {\n        if (srcRep != dstRep && amount > 0) {\n            if (srcRep != address(0)) {\n                // decrease old representative\n                uint32 srcRepNum = numCheckpoints[srcRep];\n                uint256 srcRepOld = srcRepNum > 0 ? checkpoints[srcRep][srcRepNum - 1].votes : 0;\n                uint256 srcRepNew = srcRepOld.sub(amount);\n                _writeCheckpoint(srcRep, srcRepNum, srcRepOld, srcRepNew);\n            }\n\n            if (dstRep != address(0)) {\n                // increase new representative\n                uint32 dstRepNum = numCheckpoints[dstRep];\n                uint256 dstRepOld = dstRepNum > 0 ? checkpoints[dstRep][dstRepNum - 1].votes : 0;\n                uint256 dstRepNew = dstRepOld.add(amount);\n                _writeCheckpoint(dstRep, dstRepNum, dstRepOld, dstRepNew);\n            }\n        }\n    }\n\n    function _writeCheckpoint(\n        address delegatee,\n        uint32 nCheckpoints,\n        uint256 oldVotes,\n        uint256 newVotes\n    )\n        internal\n    {\n        uint32 blockNumber = safe32(block.number, \"_writeCheckpoint: block number exceeds 32 bits\");\n\n        if (nCheckpoints > 0 && checkpoints[delegatee][nCheckpoints - 1].fromBlock == blockNumber) {\n            checkpoints[delegatee][nCheckpoints - 1].votes = newVotes;\n        } else {\n            checkpoints[delegatee][nCheckpoints] = Checkpoint(blockNumber, newVotes);\n            numCheckpoints[delegatee] = nCheckpoints + 1;\n        }\n\n        emit DelegateVotesChanged(delegatee, oldVotes, newVotes);\n    }\n\n    function safe32(uint n, string memory errorMessage) internal pure returns (uint32) {\n        require(n < 2**32, errorMessage);\n        return uint32(n);\n    }\n\n    function getChainId() internal pure returns (uint) {\n        uint256 chainId;\n        assembly { chainId := chainid() }\n        return chainId;\n    }\n}\n",
  "sourcePath": "H:\\IceCreamSwap\\contracts\\farm-contracts\\contracts\\MilkShake.sol",
  "compiler": {
    "name": "solc",
    "version": "0.6.12+commit.27d51765.Emscripten.clang"
  },
  "schemaVersion": "3.3.3",
  "updatedAt": "2021-02-12T02:22:04.690Z",
  "networkType": "ethereum",
  "devdoc": {
    "kind": "dev",
    "methods": {
      "allowance(address,address)": {
        "details": "See {BEP20-allowance}."
      },
      "approve(address,uint256)": {
        "details": "See {BEP20-approve}. Requirements: - `spender` cannot be the zero address."
      },
      "balanceOf(address)": {
        "details": "See {BEP20-balanceOf}."
      },
      "decimals()": {
        "details": "Returns the token decimals."
      },
      "decreaseAllowance(address,uint256)": {
        "details": "Atomically decreases the allowance granted to `spender` by the caller. This is an alternative to {approve} that can be used as a mitigation for problems described in {BEP20-approve}. Emits an {Approval} event indicating the updated allowance. Requirements: - `spender` cannot be the zero address. - `spender` must have allowance for the caller of at least `subtractedValue`."
      },
      "delegate(address)": {
        "params": {
          "delegatee": "The address to delegate votes to"
        }
      },
      "delegateBySig(address,uint256,uint256,uint8,bytes32,bytes32)": {
        "params": {
          "delegatee": "The address to delegate votes to",
          "expiry": "The time at which to expire the signature",
          "nonce": "The contract state required to match the signature",
          "r": "Half of the ECDSA signature pair",
          "s": "Half of the ECDSA signature pair",
          "v": "The recovery byte of the signature"
        }
      },
      "delegates(address)": {
        "params": {
          "delegator": "The address to get delegatee for"
        }
      },
      "getCurrentVotes(address)": {
        "params": {
          "account": "The address to get votes balance"
        },
        "returns": {
          "_0": "The number of current votes for `account`"
        }
      },
      "getOwner()": {
        "details": "Returns the bep token owner."
      },
      "getPriorVotes(address,uint256)": {
        "details": "Block number must be a finalized block or else this function will revert to prevent misinformation.",
        "params": {
          "account": "The address of the account to check",
          "blockNumber": "The block number to get the vote balance at"
        },
        "returns": {
          "_0": "The number of votes the account had as of the given block"
        }
      },
      "increaseAllowance(address,uint256)": {
        "details": "Atomically increases the allowance granted to `spender` by the caller. This is an alternative to {approve} that can be used as a mitigation for problems described in {BEP20-approve}. Emits an {Approval} event indicating the updated allowance. Requirements: - `spender` cannot be the zero address."
      },
      "mint(uint256)": {
        "details": "Creates `amount` tokens and assigns them to `msg.sender`, increasing the total supply. Requirements - `msg.sender` must be the token owner"
      },
      "name()": {
        "details": "Returns the token name."
      },
      "owner()": {
        "details": "Returns the address of the current owner."
      },
      "renounceOwnership()": {
        "details": "Leaves the contract without owner. It will not be possible to call `onlyOwner` functions anymore. Can only be called by the current owner. NOTE: Renouncing ownership will leave the contract without an owner, thereby removing any functionality that is only available to the owner."
      },
      "symbol()": {
        "details": "Returns the token symbol."
      },
      "totalSupply()": {
        "details": "See {BEP20-totalSupply}."
      },
      "transfer(address,uint256)": {
        "details": "See {BEP20-transfer}. Requirements: - `recipient` cannot be the zero address. - the caller must have a balance of at least `amount`."
      },
      "transferFrom(address,address,uint256)": {
        "details": "See {BEP20-transferFrom}. Emits an {Approval} event indicating the updated allowance. This is not required by the EIP. See the note at the beginning of {BEP20}; Requirements: - `sender` and `recipient` cannot be the zero address. - `sender` must have a balance of at least `amount`. - the caller must have allowance for `sender`'s tokens of at least `amount`."
      },
      "transferOwnership(address)": {
        "details": "Transfers ownership of the contract to a new account (`newOwner`). Can only be called by the current owner."
      }
    },
    "version": 1
  },
  "userdoc": {
    "events": {
      "DelegateChanged(address,address,address)": {
        "notice": "An event thats emitted when an account changes its delegate"
      },
      "DelegateVotesChanged(address,uint256,uint256)": {
        "notice": "An event thats emitted when a delegate account's vote balance changes"
      }
    },
    "kind": "user",
    "methods": {
      "DELEGATION_TYPEHASH()": {
        "notice": "The EIP-712 typehash for the delegation struct used by the contract"
      },
      "DOMAIN_TYPEHASH()": {
        "notice": "The EIP-712 typehash for the contract's domain"
      },
      "checkpoints(address,uint32)": {
        "notice": "A record of votes checkpoints for each account, by index"
      },
      "delegate(address)": {
        "notice": "Delegate votes from `msg.sender` to `delegatee`"
      },
      "delegateBySig(address,uint256,uint256,uint8,bytes32,bytes32)": {
        "notice": "Delegates votes from signatory to `delegatee`"
      },
      "delegates(address)": {
        "notice": "Delegate votes from `msg.sender` to `delegatee`"
      },
      "getCurrentVotes(address)": {
        "notice": "Gets the current votes balance for `account`"
      },
      "getPriorVotes(address,uint256)": {
        "notice": "Determine the prior number of votes for an account as of a block number"
      },
      "mint(address,uint256)": {
        "notice": "Creates `_amount` token to `_to`. Must only be called by the owner (MasterChef)."
      },
      "nonces(address)": {
        "notice": "A record of states for signing / validating signatures"
      },
      "numCheckpoints(address)": {
        "notice": "The number of checkpoints for each account"
      }
    },
    "version": 1
  }
}